{
  "abi": [
    {
      "type": "constructor",
      "inputs": [
        {
          "name": "_verifierAddress",
          "type": "address",
          "internalType": "address"
        },
        {
          "name": "_treasuryAddress",
          "type": "address",
          "internalType": "address"
        },
        {
          "name": "_initialFeePercent",
          "type": "uint256",
          "internalType": "uint256"
        }
      ],
      "stateMutability": "nonpayable"
    },
    {
      "type": "function",
      "name": "BASE_REWARD",
      "inputs": [],
      "outputs": [
        {
          "name": "",
          "type": "uint256",
          "internalType": "uint256"
        }
      ],
      "stateMutability": "view"
    },
    {
      "type": "function",
      "name": "BETA",
      "inputs": [],
      "outputs": [
        {
          "name": "",
          "type": "uint256",
          "internalType": "uint256"
        }
      ],
      "stateMutability": "view"
    },
    {
      "type": "function",
      "name": "MIN_STAKE_DURATION",
      "inputs": [],
      "outputs": [
        {
          "name": "",
          "type": "uint256",
          "internalType": "uint256"
        }
      ],
      "stateMutability": "view"
    },
    {
      "type": "function",
      "name": "approve",
      "inputs": [
        {
          "name": "to",
          "type": "address",
          "internalType": "address"
        },
        {
          "name": "tokenId",
          "type": "uint256",
          "internalType": "uint256"
        }
      ],
      "outputs": [],
      "stateMutability": "nonpayable"
    },
    {
      "type": "function",
      "name": "balanceOf",
      "inputs": [
        {
          "name": "owner",
          "type": "address",
          "internalType": "address"
        }
      ],
      "outputs": [
        {
          "name": "",
          "type": "uint256",
          "internalType": "uint256"
        }
      ],
      "stateMutability": "view"
    },
    {
      "type": "function",
      "name": "checkIn",
      "inputs": [
        {
          "name": "_signature",
          "type": "bytes",
          "internalType": "bytes"
        }
      ],
      "outputs": [],
      "stateMutability": "nonpayable"
    },
    {
      "type": "function",
      "name": "commitments",
      "inputs": [
        {
          "name": "",
          "type": "address",
          "internalType": "address"
        }
      ],
      "outputs": [
        {
          "name": "user",
          "type": "address",
          "internalType": "address"
        },
        {
          "name": "amountInPool",
          "type": "uint256",
          "internalType": "uint256"
        },
        {
          "name": "travelDate",
          "type": "uint256",
          "internalType": "uint256"
        },
        {
          "name": "destinationId",
          "type": "uint256",
          "internalType": "uint256"
        },
        {
          "name": "isProcessed",
          "type": "bool",
          "internalType": "bool"
        }
      ],
      "stateMutability": "view"
    },
    {
      "type": "function",
      "name": "destinationMetadata",
      "inputs": [
        {
          "name": "",
          "type": "uint256",
          "internalType": "uint256"
        }
      ],
      "outputs": [
        {
          "name": "",
          "type": "string",
          "internalType": "string"
        }
      ],
      "stateMutability": "view"
    },
    {
      "type": "function",
      "name": "destinationNames",
      "inputs": [
        {
          "name": "",
          "type": "uint256",
          "internalType": "uint256"
        }
      ],
      "outputs": [
        {
          "name": "",
          "type": "string",
          "internalType": "string"
        }
      ],
      "stateMutability": "view"
    },
    {
      "type": "function",
      "name": "getApproved",
      "inputs": [
        {
          "name": "tokenId",
          "type": "uint256",
          "internalType": "uint256"
        }
      ],
      "outputs": [
        {
          "name": "",
          "type": "address",
          "internalType": "address"
        }
      ],
      "stateMutability": "view"
    },
    {
      "type": "function",
      "name": "getJourneyNFTDetails",
      "inputs": [
        {
          "name": "tokenId",
          "type": "uint256",
          "internalType": "uint256"
        }
      ],
      "outputs": [
        {
          "name": "",
          "type": "tuple",
          "internalType": "struct WandryFi.JourneyNFT",
          "components": [
            {
              "name": "destinationId",
              "type": "uint256",
              "internalType": "uint256"
            },
            {
              "name": "completionDate",
              "type": "uint256",
              "internalType": "uint256"
            },
            {
              "name": "stakedAmount",
              "type": "uint256",
              "internalType": "uint256"
            },
            {
              "name": "rewardEarned",
              "type": "uint256",
              "internalType": "uint256"
            },
            {
              "name": "destinationName",
              "type": "string",
              "internalType": "string"
            }
          ]
        }
      ],
      "stateMutability": "view"
    },
    {
      "type": "function",
      "name": "getLeaderboard",
      "inputs": [],
      "outputs": [
        {
          "name": "",
          "type": "address[]",
          "internalType": "address[]"
        },
        {
          "name": "",
          "type": "uint256[]",
          "internalType": "uint256[]"
        }
      ],
      "stateMutability": "pure"
    },
    {
      "type": "function",
      "name": "getUserJourneyCount",
      "inputs": [
        {
          "name": "user",
          "type": "address",
          "internalType": "address"
        }
      ],
      "outputs": [
        {
          "name": "",
          "type": "uint256",
          "internalType": "uint256"
        }
      ],
      "stateMutability": "view"
    },
    {
      "type": "function",
      "name": "getUserJourneyNFTs",
      "inputs": [
        {
          "name": "user",
          "type": "address",
          "internalType": "address"
        }
      ],
      "outputs": [
        {
          "name": "",
          "type": "uint256[]",
          "internalType": "uint256[]"
        }
      ],
      "stateMutability": "view"
    },
    {
      "type": "function",
      "name": "isApprovedForAll",
      "inputs": [
        {
          "name": "owner",
          "type": "address",
          "internalType": "address"
        },
        {
          "name": "operator",
          "type": "address",
          "internalType": "address"
        }
      ],
      "outputs": [
        {
          "name": "",
          "type": "bool",
          "internalType": "bool"
        }
      ],
      "stateMutability": "view"
    },
    {
      "type": "function",
      "name": "journeyNFTs",
      "inputs": [
        {
          "name": "",
          "type": "uint256",
          "internalType": "uint256"
        }
      ],
      "outputs": [
        {
          "name": "destinationId",
          "type": "uint256",
          "internalType": "uint256"
        },
        {
          "name": "completionDate",
          "type": "uint256",
          "internalType": "uint256"
        },
        {
          "name": "stakedAmount",
          "type": "uint256",
          "internalType": "uint256"
        },
        {
          "name": "rewardEarned",
          "type": "uint256",
          "internalType": "uint256"
        },
        {
          "name": "destinationName",
          "type": "string",
          "internalType": "string"
        }
      ],
      "stateMutability": "view"
    },
    {
      "type": "function",
      "name": "locationPools",
      "inputs": [
        {
          "name": "",
          "type": "uint256",
          "internalType": "uint256"
        }
      ],
      "outputs": [
        {
          "name": "",
          "type": "uint256",
          "internalType": "uint256"
        }
      ],
      "stateMutability": "view"
    },
    {
      "type": "function",
      "name": "name",
      "inputs": [],
      "outputs": [
        {
          "name": "",
          "type": "string",
          "internalType": "string"
        }
      ],
      "stateMutability": "view"
    },
    {
      "type": "function",
      "name": "owner",
      "inputs": [],
      "outputs": [
        {
          "name": "",
          "type": "address",
          "internalType": "address"
        }
      ],
      "stateMutability": "view"
    },
    {
      "type": "function",
      "name": "ownerOf",
      "inputs": [
        {
          "name": "tokenId",
          "type": "uint256",
          "internalType": "uint256"
        }
      ],
      "outputs": [
        {
          "name": "",
          "type": "address",
          "internalType": "address"
        }
      ],
      "stateMutability": "view"
    },
    {
      "type": "function",
      "name": "pause",
      "inputs": [],
      "outputs": [],
      "stateMutability": "nonpayable"
    },
    {
      "type": "function",
      "name": "paused",
      "inputs": [],
      "outputs": [
        {
          "name": "",
          "type": "bool",
          "internalType": "bool"
        }
      ],
      "stateMutability": "view"
    },
    {
      "type": "function",
      "name": "placeValues",
      "inputs": [
        {
          "name": "",
          "type": "uint256",
          "internalType": "uint256"
        }
      ],
      "outputs": [
        {
          "name": "",
          "type": "uint256",
          "internalType": "uint256"
        }
      ],
      "stateMutability": "view"
    },
    {
      "type": "function",
      "name": "platformFeePercent",
      "inputs": [],
      "outputs": [
        {
          "name": "",
          "type": "uint256",
          "internalType": "uint256"
        }
      ],
      "stateMutability": "view"
    },
    {
      "type": "function",
      "name": "processFailure",
      "inputs": [],
      "outputs": [],
      "stateMutability": "nonpayable"
    },
    {
      "type": "function",
      "name": "renounceOwnership",
      "inputs": [],
      "outputs": [],
      "stateMutability": "nonpayable"
    },
    {
      "type": "function",
      "name": "safeTransferFrom",
      "inputs": [
        {
          "name": "from",
          "type": "address",
          "internalType": "address"
        },
        {
          "name": "to",
          "type": "address",
          "internalType": "address"
        },
        {
          "name": "tokenId",
          "type": "uint256",
          "internalType": "uint256"
        }
      ],
      "outputs": [],
      "stateMutability": "nonpayable"
    },
    {
      "type": "function",
      "name": "safeTransferFrom",
      "inputs": [
        {
          "name": "from",
          "type": "address",
          "internalType": "address"
        },
        {
          "name": "to",
          "type": "address",
          "internalType": "address"
        },
        {
          "name": "tokenId",
          "type": "uint256",
          "internalType": "uint256"
        },
        {
          "name": "data",
          "type": "bytes",
          "internalType": "bytes"
        }
      ],
      "outputs": [],
      "stateMutability": "nonpayable"
    },
    {
      "type": "function",
      "name": "seedPool",
      "inputs": [
        {
          "name": "_destinationId",
          "type": "uint256",
          "internalType": "uint256"
        }
      ],
      "outputs": [],
      "stateMutability": "payable"
    },
    {
      "type": "function",
      "name": "setApprovalForAll",
      "inputs": [
        {
          "name": "operator",
          "type": "address",
          "internalType": "address"
        },
        {
          "name": "approved",
          "type": "bool",
          "internalType": "bool"
        }
      ],
      "outputs": [],
      "stateMutability": "nonpayable"
    },
    {
      "type": "function",
      "name": "setDestinationMetadata",
      "inputs": [
        {
          "name": "_destinationId",
          "type": "uint256",
          "internalType": "uint256"
        },
        {
          "name": "_metadataURI",
          "type": "string",
          "internalType": "string"
        }
      ],
      "outputs": [],
      "stateMutability": "nonpayable"
    },
    {
      "type": "function",
      "name": "setDestinationName",
      "inputs": [
        {
          "name": "_destinationId",
          "type": "uint256",
          "internalType": "uint256"
        },
        {
          "name": "_name",
          "type": "string",
          "internalType": "string"
        }
      ],
      "outputs": [],
      "stateMutability": "nonpayable"
    },
    {
      "type": "function",
      "name": "setPlaceValue",
      "inputs": [
        {
          "name": "_destinationId",
          "type": "uint256",
          "internalType": "uint256"
        },
        {
          "name": "_value",
          "type": "uint256",
          "internalType": "uint256"
        }
      ],
      "outputs": [],
      "stateMutability": "nonpayable"
    },
    {
      "type": "function",
      "name": "setPlatformFeePercent",
      "inputs": [
        {
          "name": "_newFeePercent",
          "type": "uint256",
          "internalType": "uint256"
        }
      ],
      "outputs": [],
      "stateMutability": "nonpayable"
    },
    {
      "type": "function",
      "name": "setTreasuryAddress",
      "inputs": [
        {
          "name": "_newAddress",
          "type": "address",
          "internalType": "address"
        }
      ],
      "outputs": [],
      "stateMutability": "nonpayable"
    },
    {
      "type": "function",
      "name": "setVerifierAddress",
      "inputs": [
        {
          "name": "_newAddress",
          "type": "address",
          "internalType": "address"
        }
      ],
      "outputs": [],
      "stateMutability": "nonpayable"
    },
    {
      "type": "function",
      "name": "stake",
      "inputs": [
        {
          "name": "_destinationId",
          "type": "uint256",
          "internalType": "uint256"
        },
        {
          "name": "_travelDate",
          "type": "uint256",
          "internalType": "uint256"
        }
      ],
      "outputs": [],
      "stateMutability": "payable"
    },
    {
      "type": "function",
      "name": "supportsInterface",
      "inputs": [
        {
          "name": "interfaceId",
          "type": "bytes4",
          "internalType": "bytes4"
        }
      ],
      "outputs": [
        {
          "name": "",
          "type": "bool",
          "internalType": "bool"
        }
      ],
      "stateMutability": "view"
    },
    {
      "type": "function",
      "name": "symbol",
      "inputs": [],
      "outputs": [
        {
          "name": "",
          "type": "string",
          "internalType": "string"
        }
      ],
      "stateMutability": "view"
    },
    {
      "type": "function",
      "name": "tokenURI",
      "inputs": [
        {
          "name": "tokenId",
          "type": "uint256",
          "internalType": "uint256"
        }
      ],
      "outputs": [
        {
          "name": "",
          "type": "string",
          "internalType": "string"
        }
      ],
      "stateMutability": "view"
    },
    {
      "type": "function",
      "name": "transferFrom",
      "inputs": [
        {
          "name": "from",
          "type": "address",
          "internalType": "address"
        },
        {
          "name": "to",
          "type": "address",
          "internalType": "address"
        },
        {
          "name": "tokenId",
          "type": "uint256",
          "internalType": "uint256"
        }
      ],
      "outputs": [],
      "stateMutability": "nonpayable"
    },
    {
      "type": "function",
      "name": "transferOwnership",
      "inputs": [
        {
          "name": "newOwner",
          "type": "address",
          "internalType": "address"
        }
      ],
      "outputs": [],
      "stateMutability": "nonpayable"
    },
    {
      "type": "function",
      "name": "treasuryAddress",
      "inputs": [],
      "outputs": [
        {
          "name": "",
          "type": "address",
          "internalType": "address"
        }
      ],
      "stateMutability": "view"
    },
    {
      "type": "function",
      "name": "unpause",
      "inputs": [],
      "outputs": [],
      "stateMutability": "nonpayable"
    },
    {
      "type": "function",
      "name": "userJourneyNFTs",
      "inputs": [
        {
          "name": "",
          "type": "address",
          "internalType": "address"
        },
        {
          "name": "",
          "type": "uint256",
          "internalType": "uint256"
        }
      ],
      "outputs": [
        {
          "name": "",
          "type": "uint256",
          "internalType": "uint256"
        }
      ],
      "stateMutability": "view"
    },
    {
      "type": "function",
      "name": "userProfits",
      "inputs": [
        {
          "name": "",
          "type": "address",
          "internalType": "address"
        }
      ],
      "outputs": [
        {
          "name": "",
          "type": "uint256",
          "internalType": "uint256"
        }
      ],
      "stateMutability": "view"
    },
    {
      "type": "function",
      "name": "verifierAddress",
      "inputs": [],
      "outputs": [
        {
          "name": "",
          "type": "address",
          "internalType": "address"
        }
      ],
      "stateMutability": "view"
    },
    {
      "type": "function",
      "name": "withdrawFees",
      "inputs": [],
      "outputs": [],
      "stateMutability": "nonpayable"
    },
    {
      "type": "event",
      "name": "Approval",
      "inputs": [
        {
          "name": "owner",
          "type": "address",
          "indexed": true,
          "internalType": "address"
        },
        {
          "name": "approved",
          "type": "address",
          "indexed": true,
          "internalType": "address"
        },
        {
          "name": "tokenId",
          "type": "uint256",
          "indexed": true,
          "internalType": "uint256"
        }
      ],
      "anonymous": false
    },
    {
      "type": "event",
      "name": "ApprovalForAll",
      "inputs": [
        {
          "name": "owner",
          "type": "address",
          "indexed": true,
          "internalType": "address"
        },
        {
          "name": "operator",
          "type": "address",
          "indexed": true,
          "internalType": "address"
        },
        {
          "name": "approved",
          "type": "bool",
          "indexed": false,
          "internalType": "bool"
        }
      ],
      "anonymous": false
    },
    {
      "type": "event",
      "name": "BatchMetadataUpdate",
      "inputs": [
        {
          "name": "_fromTokenId",
          "type": "uint256",
          "indexed": false,
          "internalType": "uint256"
        },
        {
          "name": "_toTokenId",
          "type": "uint256",
          "indexed": false,
          "internalType": "uint256"
        }
      ],
      "anonymous": false
    },
    {
      "type": "event",
      "name": "CheckedIn",
      "inputs": [
        {
          "name": "user",
          "type": "address",
          "indexed": true,
          "internalType": "address"
        },
        {
          "name": "destinationId",
          "type": "uint256",
          "indexed": false,
          "internalType": "uint256"
        },
        {
          "name": "payout",
          "type": "uint256",
          "indexed": false,
          "internalType": "uint256"
        }
      ],
      "anonymous": false
    },
    {
      "type": "event",
      "name": "FailureProcessed",
      "inputs": [
        {
          "name": "user",
          "type": "address",
          "indexed": true,
          "internalType": "address"
        },
        {
          "name": "destinationId",
          "type": "uint256",
          "indexed": false,
          "internalType": "uint256"
        }
      ],
      "anonymous": false
    },
    {
      "type": "event",
      "name": "JourneyNFTMinted",
      "inputs": [
        {
          "name": "user",
          "type": "address",
          "indexed": true,
          "internalType": "address"
        },
        {
          "name": "tokenId",
          "type": "uint256",
          "indexed": true,
          "internalType": "uint256"
        },
        {
          "name": "destinationId",
          "type": "uint256",
          "indexed": true,
          "internalType": "uint256"
        }
      ],
      "anonymous": false
    },
    {
      "type": "event",
      "name": "MetadataUpdate",
      "inputs": [
        {
          "name": "_tokenId",
          "type": "uint256",
          "indexed": false,
          "internalType": "uint256"
        }
      ],
      "anonymous": false
    },
    {
      "type": "event",
      "name": "OwnershipTransferred",
      "inputs": [
        {
          "name": "previousOwner",
          "type": "address",
          "indexed": true,
          "internalType": "address"
        },
        {
          "name": "newOwner",
          "type": "address",
          "indexed": true,
          "internalType": "address"
        }
      ],
      "anonymous": false
    },
    {
      "type": "event",
      "name": "Paused",
      "inputs": [
        {
          "name": "account",
          "type": "address",
          "indexed": false,
          "internalType": "address"
        }
      ],
      "anonymous": false
    },
    {
      "type": "event",
      "name": "PoolSeeded",
      "inputs": [
        {
          "name": "destinationId",
          "type": "uint256",
          "indexed": true,
          "internalType": "uint256"
        },
        {
          "name": "amount",
          "type": "uint256",
          "indexed": false,
          "internalType": "uint256"
        }
      ],
      "anonymous": false
    },
    {
      "type": "event",
      "name": "ProfitRecorded",
      "inputs": [
        {
          "name": "user",
          "type": "address",
          "indexed": true,
          "internalType": "address"
        },
        {
          "name": "profit",
          "type": "uint256",
          "indexed": false,
          "internalType": "uint256"
        }
      ],
      "anonymous": false
    },
    {
      "type": "event",
      "name": "Staked",
      "inputs": [
        {
          "name": "user",
          "type": "address",
          "indexed": true,
          "internalType": "address"
        },
        {
          "name": "destinationId",
          "type": "uint256",
          "indexed": false,
          "internalType": "uint256"
        },
        {
          "name": "totalAmount",
          "type": "uint256",
          "indexed": false,
          "internalType": "uint256"
        },
        {
          "name": "travelDate",
          "type": "uint256",
          "indexed": false,
          "internalType": "uint256"
        }
      ],
      "anonymous": false
    },
    {
      "type": "event",
      "name": "Transfer",
      "inputs": [
        {
          "name": "from",
          "type": "address",
          "indexed": true,
          "internalType": "address"
        },
        {
          "name": "to",
          "type": "address",
          "indexed": true,
          "internalType": "address"
        },
        {
          "name": "tokenId",
          "type": "uint256",
          "indexed": true,
          "internalType": "uint256"
        }
      ],
      "anonymous": false
    },
    {
      "type": "event",
      "name": "Unpaused",
      "inputs": [
        {
          "name": "account",
          "type": "address",
          "indexed": false,
          "internalType": "address"
        }
      ],
      "anonymous": false
    }
  ],
  "bytecode": {
    "object": "0x608060405234801561000f575f5ffd5b5060405161669f38038061669f83398181016040528101906100319190610405565b6040518060400160405280601181526020017f57616e646572696679204a6f75726e65790000000000000000000000000000008152506040518060400160405280600581526020017f574a524e59000000000000000000000000000000000000000000000000000000815250815f90816100ab9190610689565b5080600190816100bb9190610689565b5050506100da6100cf6102aa60201b60201c565b6102b160201b60201c565b60016008819055505f60095f6101000a81548160ff0219169083151502179055505f73ffffffffffffffffffffffffffffffffffffffff168373ffffffffffffffffffffffffffffffffffffffff1603610169576040517f08c379a0000000000000000000000000000000000000000000000000000000008152600401610160906107b2565b60405180910390fd5b5f73ffffffffffffffffffffffffffffffffffffffff168273ffffffffffffffffffffffffffffffffffffffff16036101d7576040517f08c379a00000000000000000000000000000000000000000000000000000000081526004016101ce9061081a565b60405180910390fd5b600581111561021b576040517f08c379a000000000000000000000000000000000000000000000000000000000815260040161021290610882565b60405180910390fd5b82600b5f6101000a81548173ffffffffffffffffffffffffffffffffffffffff021916908373ffffffffffffffffffffffffffffffffffffffff16021790555081600c5f6101000a81548173ffffffffffffffffffffffffffffffffffffffff021916908373ffffffffffffffffffffffffffffffffffffffff16021790555080600d819055505050506108a0565b5f33905090565b5f60075f9054906101000a900473ffffffffffffffffffffffffffffffffffffffff1690508160075f6101000a81548173ffffffffffffffffffffffffffffffffffffffff021916908373ffffffffffffffffffffffffffffffffffffffff1602179055508173ffffffffffffffffffffffffffffffffffffffff168173ffffffffffffffffffffffffffffffffffffffff167f8be0079c531659141344cd1fd0a4f28419497f9722a3daafe3b4186f6b6457e060405160405180910390a35050565b5f5ffd5b5f73ffffffffffffffffffffffffffffffffffffffff82169050919050565b5f6103a182610378565b9050919050565b6103b181610397565b81146103bb575f5ffd5b50565b5f815190506103cc816103a8565b92915050565b5f819050919050565b6103e4816103d2565b81146103ee575f5ffd5b50565b5f815190506103ff816103db565b92915050565b5f5f5f6060848603121561041c5761041b610374565b5b5f610429868287016103be565b935050602061043a868287016103be565b925050604061044b868287016103f1565b9150509250925092565b5f81519050919050565b7f4e487b71000000000000000000000000000000000000000000000000000000005f52604160045260245ffd5b7f4e487b71000000000000000000000000000000000000000000000000000000005f52602260045260245ffd5b5f60028204905060018216806104d057607f821691505b6020821081036104e3576104e261048c565b5b50919050565b5f819050815f5260205f209050919050565b5f6020601f8301049050919050565b5f82821b905092915050565b5f600883026105457fffffffffffffffffffffffffffffffffffffffffffffffffffffffffffffffff8261050a565b61054f868361050a565b95508019841693508086168417925050509392505050565b5f819050919050565b5f61058a610585610580846103d2565b610567565b6103d2565b9050919050565b5f819050919050565b6105a383610570565b6105b76105af82610591565b848454610516565b825550505050565b5f5f905090565b6105ce6105bf565b6105d981848461059a565b505050565b5b818110156105fc576105f15f826105c6565b6001810190506105df565b5050565b601f82111561064157610612816104e9565b61061b846104fb565b8101602085101561062a578190505b61063e610636856104fb565b8301826105de565b50505b505050565b5f82821c905092915050565b5f6106615f1984600802610646565b1980831691505092915050565b5f6106798383610652565b9150826002028217905092915050565b61069282610455565b67ffffffffffffffff8111156106ab576106aa61045f565b5b6106b582546104b9565b6106c0828285610600565b5f60209050601f8311600181146106f1575f84156106df578287015190505b6106e9858261066e565b865550610750565b601f1984166106ff866104e9565b5f5b8281101561072657848901518255600182019150602085019450602081019050610701565b86831015610743578489015161073f601f891682610652565b8355505b6001600288020188555050505b505050505050565b5f82825260208201905092915050565b7f56657269666965722063616e6e6f74206265207a65726f0000000000000000005f82015250565b5f61079c601783610758565b91506107a782610768565b602082019050919050565b5f6020820190508181035f8301526107c981610790565b9050919050565b7f54726561737572792063616e6e6f74206265207a65726f0000000000000000005f82015250565b5f610804601783610758565b915061080f826107d0565b602082019050919050565b5f6020820190508181035f830152610831816107f8565b9050919050565b7f4665652063616e6e6f74206578636565642035250000000000000000000000005f82015250565b5f61086c601483610758565b915061087782610838565b602082019050919050565b5f6020820190508181035f83015261089981610860565b9050919050565b615df2806108ad5f395ff3fe608060405260043610610292575f3560e01c80636352211e11610159578063a22cb465116100c0578063cab230d211610079578063cab230d2146109e1578063e0c570ba14610a09578063e237fc5e14610a33578063e8fcf72314610a73578063e985e9c514610ab3578063f2fde38b14610aef57610292565b8063a22cb465146108c7578063b88d4fde146108ef578063be35483614610917578063c0c1fee514610953578063c5f956af1461097b578063c87b56dd146109a557610292565b80638456cb59116101125780638456cb59146107cf5780638c639a85146107e55780638da5cb5b1461080f57806395d89b41146108395780639f2a4bbd14610863578063a0d9eeab1461089f57610292565b80636352211e146106d25780636605bfda1461070e5780636d763a6e1461073657806370a0823114610761578063715018a61461079d5780637b0472f0146107b357610292565b806323b872dd116101fd5780633f4ba83a116101b65780633f4ba83a146105dc57806342842e0e146105f2578063476343ee1461061a5780634efa8eeb146106305780635c3e4f621461066c5780635c975abb146106a857610292565b806323b872dd146104c25780632d8fb7ab146104ea578063304c44d11461052657806331d56d3c1461054e578063343634201461058a57806335ac81cf146105a057610292565b80630e526b141161024f5780630e526b14146103a65780630e6bc64f146103e257806317cd87451461041e57806317e955261461044657806318bdffbb1461046e57806322009af61461049857610292565b806301ffc9a714610296578063025d26bd146102d257806306fdde03146102ee578063071a754114610318578063081812fc14610342578063095ea7b31461037e575b5f5ffd5b3480156102a1575f5ffd5b506102bc60048036038101906102b79190613e14565b610b17565b6040516102c99190613e59565b60405180910390f35b6102ec60048036038101906102e79190613ea5565b610b28565b005b3480156102f9575f5ffd5b50610302610bd4565b60405161030f9190613f40565b60405180910390f35b348015610323575f5ffd5b5061032c610c63565b6040516103399190613f6f565b60405180910390f35b34801561034d575f5ffd5b5061036860048036038101906103639190613ea5565b610c68565b6040516103759190613fc7565b60405180910390f35b348015610389575f5ffd5b506103a4600480360381019061039f919061400a565b610caa565b005b3480156103b1575f5ffd5b506103cc60048036038101906103c7919061400a565b610dc0565b6040516103d99190613f6f565b60405180910390f35b3480156103ed575f5ffd5b5061040860048036038101906104039190613ea5565b610deb565b6040516104159190613f6f565b60405180910390f35b348015610429575f5ffd5b50610444600480360381019061043f9190614174565b610e00565b005b348015610451575f5ffd5b5061046c600480360381019061046791906141ce565b610e2b565b005b348015610479575f5ffd5b50610482610ee4565b60405161048f9190613fc7565b60405180910390f35b3480156104a3575f5ffd5b506104ac610f09565b6040516104b99190613f6f565b60405180910390f35b3480156104cd575f5ffd5b506104e860048036038101906104e391906141f9565b610f15565b005b3480156104f5575f5ffd5b50610510600480360381019061050b91906141ce565b610f75565b60405161051d9190614300565b60405180910390f35b348015610531575f5ffd5b5061054c600480360381019061054791906143be565b611008565b005b348015610559575f5ffd5b50610574600480360381019061056f9190613ea5565b611543565b6040516105819190613f40565b60405180910390f35b348015610595575f5ffd5b5061059e6115de565b005b3480156105ab575f5ffd5b506105c660048036038101906105c19190613ea5565b6117b6565b6040516105d39190613f6f565b60405180910390f35b3480156105e7575f5ffd5b506105f06117cb565b005b3480156105fd575f5ffd5b50610618600480360381019061061391906141f9565b6117dd565b005b348015610625575f5ffd5b5061062e6117fc565b005b34801561063b575f5ffd5b5061065660048036038101906106519190613ea5565b6118d5565b6040516106639190613f40565b60405180910390f35b348015610677575f5ffd5b50610692600480360381019061068d91906141ce565b611970565b60405161069f9190613f6f565b60405180910390f35b3480156106b3575f5ffd5b506106bc6119b9565b6040516106c99190613e59565b60405180910390f35b3480156106dd575f5ffd5b506106f860048036038101906106f39190613ea5565b6119ce565b6040516107059190613fc7565b60405180910390f35b348015610719575f5ffd5b50610734600480360381019061072f91906141ce565b611a52565b005b348015610741575f5ffd5b5061074a611b0b565b6040516107589291906144bc565b60405180910390f35b34801561076c575f5ffd5b50610787600480360381019061078291906141ce565b611bb2565b6040516107949190613f6f565b60405180910390f35b3480156107a8575f5ffd5b506107b1611c66565b005b6107cd60048036038101906107c891906144f1565b611c79565b005b3480156107da575f5ffd5b506107e361205f565b005b3480156107f0575f5ffd5b506107f9612071565b6040516108069190613f6f565b60405180910390f35b34801561081a575f5ffd5b50610823612077565b6040516108309190613fc7565b60405180910390f35b348015610844575f5ffd5b5061084d61209f565b60405161085a9190613f40565b60405180910390f35b34801561086e575f5ffd5b5061088960048036038101906108849190613ea5565b61212f565b60405161089691906145ea565b60405180910390f35b3480156108aa575f5ffd5b506108c560048036038101906108c09190614174565b612259565b005b3480156108d2575f5ffd5b506108ed60048036038101906108e89190614634565b612284565b005b3480156108fa575f5ffd5b5061091560048036038101906109109190614672565b61229a565b005b348015610922575f5ffd5b5061093d600480360381019061093891906141ce565b6122fc565b60405161094a9190613f6f565b60405180910390f35b34801561095e575f5ffd5b50610979600480360381019061097491906144f1565b612311565b005b348015610986575f5ffd5b5061098f612333565b60405161099c9190613fc7565b60405180910390f35b3480156109b0575f5ffd5b506109cb60048036038101906109c69190613ea5565b612358565b6040516109d89190613f40565b60405180910390f35b3480156109ec575f5ffd5b50610a076004803603810190610a029190613ea5565b61236a565b005b348015610a14575f5ffd5b50610a1d6123c0565b604051610a2a9190613f6f565b60405180910390f35b348015610a3e575f5ffd5b50610a596004803603810190610a549190613ea5565b6123c7565b604051610a6a9594939291906146f2565b60405180910390f35b348015610a7e575f5ffd5b50610a996004803603810190610a9491906141ce565b61247f565b604051610aaa95949392919061474a565b60405180910390f35b348015610abe575f5ffd5b50610ad96004803603810190610ad4919061479b565b6124dc565b604051610ae69190613e59565b60405180910390f35b348015610afa575f5ffd5b50610b156004803603810190610b1091906141ce565b61256a565b005b5f610b21826125ec565b9050919050565b610b3061264c565b5f3411610b72576040517f08c379a0000000000000000000000000000000000000000000000000000000008152600401610b6990614823565b60405180910390fd5b34600e5f8381526020019081526020015f205f828254610b92919061486e565b92505081905550807f3ce3bc06c5a63b1ec4be80a76230f72728f9bdec240f0f1ee44b9f7906abb13734604051610bc99190613f6f565b60405180910390a250565b60605f8054610be2906148ce565b80601f0160208091040260200160405190810160405280929190818152602001828054610c0e906148ce565b8015610c595780601f10610c3057610100808354040283529160200191610c59565b820191905f5260205f20905b815481529060010190602001808311610c3c57829003601f168201915b5050505050905090565b603281565b5f610c72826126ca565b60045f8381526020019081526020015f205f9054906101000a900473ffffffffffffffffffffffffffffffffffffffff169050919050565b5f610cb4826119ce565b90508073ffffffffffffffffffffffffffffffffffffffff168373ffffffffffffffffffffffffffffffffffffffff1603610d24576040517f08c379a0000000000000000000000000000000000000000000000000000000008152600401610d1b9061496e565b60405180910390fd5b8073ffffffffffffffffffffffffffffffffffffffff16610d43612715565b73ffffffffffffffffffffffffffffffffffffffff161480610d725750610d7181610d6c612715565b6124dc565b5b610db1576040517f08c379a0000000000000000000000000000000000000000000000000000000008152600401610da8906149fc565b60405180910390fd5b610dbb838361271c565b505050565b6013602052815f5260405f208181548110610dd9575f80fd5b905f5260205f20015f91509150505481565b600f602052805f5260405f205f915090505481565b610e0861264c565b8060155f8481526020019081526020015f209081610e269190614bba565b505050565b610e3361264c565b5f73ffffffffffffffffffffffffffffffffffffffff168173ffffffffffffffffffffffffffffffffffffffff1603610ea1576040517f08c379a0000000000000000000000000000000000000000000000000000000008152600401610e9890614cd3565b60405180910390fd5b80600b5f6101000a81548173ffffffffffffffffffffffffffffffffffffffff021916908373ffffffffffffffffffffffffffffffffffffffff16021790555050565b600b5f9054906101000a900473ffffffffffffffffffffffffffffffffffffffff1681565b678ac7230489e8000081565b610f26610f20612715565b826127d2565b610f65576040517f08c379a0000000000000000000000000000000000000000000000000000000008152600401610f5c90614d61565b60405180910390fd5b610f70838383612866565b505050565b606060135f8373ffffffffffffffffffffffffffffffffffffffff1673ffffffffffffffffffffffffffffffffffffffff1681526020019081526020015f20805480602002602001604051908101604052809291908181526020018280548015610ffc57602002820191905f5260205f20905b815481526020019060010190808311610fe8575b50505050509050919050565b611010612b52565b611018612ba1565b5f60105f3373ffffffffffffffffffffffffffffffffffffffff1673ffffffffffffffffffffffffffffffffffffffff1681526020019081526020015f2090505f73ffffffffffffffffffffffffffffffffffffffff16815f015f9054906101000a900473ffffffffffffffffffffffffffffffffffffffff1673ffffffffffffffffffffffffffffffffffffffff16036110e8576040517f08c379a00000000000000000000000000000000000000000000000000000000081526004016110df90614dc9565b60405180910390fd5b806004015f9054906101000a900460ff1615611139576040517f08c379a000000000000000000000000000000000000000000000000000000000815260040161113090614e31565b60405180910390fd5b8060020154421015611180576040517f08c379a000000000000000000000000000000000000000000000000000000000815260040161117790614e99565b60405180910390fd5b5f338260030154604051602001611198929190614f1c565b6040516020818303038152906040528051906020012090505f6111bb8285612beb565b9050600b5f9054906101000a900473ffffffffffffffffffffffffffffffffffffffff1673ffffffffffffffffffffffffffffffffffffffff168173ffffffffffffffffffffffffffffffffffffffff161461124c576040517f08c379a000000000000000000000000000000000000000000000000000000000815260040161124390614fb7565b60405180910390fd5b5f6064600f5f866003015481526020019081526020015f205460326112719190614fd5565b606461127d919061486e565b678ac7230489e800006112909190614fd5565b61129a9190615043565b90505f600a600e5f876003015481526020019081526020015f20546112bf9190615043565b90505f8183106112cf57816112d1565b825b90505f8187600101546112e4919061486e565b90505f600d5411156113d9575f600d5460646113009190615073565b606489600101546113119190614fd5565b61131b9190615043565b9050808211156113d7575f81836113329190615073565b90508060115f3373ffffffffffffffffffffffffffffffffffffffff1673ffffffffffffffffffffffffffffffffffffffff1681526020019081526020015f205f828254611380919061486e565b925050819055503373ffffffffffffffffffffffffffffffffffffffff167f73460f842453f367d40ee9d5affc089fd7bbe81e8125be8b662776eb398c9fff826040516113cd9190613f6f565b60405180910390a2505b505b81600e5f896003015481526020019081526020015f205f8282546113fd9190615073565b925050819055506001876004015f6101000a81548160ff021916908315150217905550611434338860030154896001015485612c80565b5f3373ffffffffffffffffffffffffffffffffffffffff1682604051611459906150d3565b5f6040518083038185875af1925050503d805f8114611493576040519150601f19603f3d011682016040523d82523d5f602084013e611498565b606091505b50509050806114dc576040517f08c379a00000000000000000000000000000000000000000000000000000000081526004016114d390615131565b60405180910390fd5b3373ffffffffffffffffffffffffffffffffffffffff167f621d62c6c0c4a0c35e883c6b27ad50ecc3093f08bfaf8aa5f58127d351feeb2189600301548460405161152892919061514f565b60405180910390a25050505050505050611540612f23565b50565b6015602052805f5260405f205f91509050805461155f906148ce565b80601f016020809104026020016040519081016040528092919081815260200182805461158b906148ce565b80156115d65780601f106115ad576101008083540402835291602001916115d6565b820191905f5260205f20905b8154815290600101906020018083116115b957829003601f168201915b505050505081565b5f60105f3373ffffffffffffffffffffffffffffffffffffffff1673ffffffffffffffffffffffffffffffffffffffff1681526020019081526020015f2090505f73ffffffffffffffffffffffffffffffffffffffff16815f015f9054906101000a900473ffffffffffffffffffffffffffffffffffffffff1673ffffffffffffffffffffffffffffffffffffffff16036116ae576040517f08c379a00000000000000000000000000000000000000000000000000000000081526004016116a590614dc9565b60405180910390fd5b806004015f9054906101000a900460ff16156116ff576040517f08c379a00000000000000000000000000000000000000000000000000000000081526004016116f690614e31565b60405180910390fd5b80600201544211611745576040517f08c379a000000000000000000000000000000000000000000000000000000000815260040161173c906151c0565b60405180910390fd5b6001816004015f6101000a81548160ff0219169083151502179055503373ffffffffffffffffffffffffffffffffffffffff167fccbfbc20e0828111013fe4a72a3138c08d256ba5d5e21a11c6e101cb2187e02782600301546040516117ab9190613f6f565b60405180910390a250565b600e602052805f5260405f205f915090505481565b6117d361264c565b6117db612f2d565b565b6117f783838360405180602001604052805f81525061229a565b505050565b61180461264c565b5f4790505f600c5f9054906101000a900473ffffffffffffffffffffffffffffffffffffffff1673ffffffffffffffffffffffffffffffffffffffff168260405161184e906150d3565b5f6040518083038185875af1925050503d805f8114611888576040519150601f19603f3d011682016040523d82523d5f602084013e61188d565b606091505b50509050806118d1576040517f08c379a00000000000000000000000000000000000000000000000000000000081526004016118c890615228565b60405180910390fd5b5050565b6014602052805f5260405f205f9150905080546118f1906148ce565b80601f016020809104026020016040519081016040528092919081815260200182805461191d906148ce565b80156119685780601f1061193f57610100808354040283529160200191611968565b820191905f5260205f20905b81548152906001019060200180831161194b57829003601f168201915b505050505081565b5f60135f8373ffffffffffffffffffffffffffffffffffffffff1673ffffffffffffffffffffffffffffffffffffffff1681526020019081526020015f20805490509050919050565b5f60095f9054906101000a900460ff16905090565b5f5f6119d983612f8e565b90505f73ffffffffffffffffffffffffffffffffffffffff168173ffffffffffffffffffffffffffffffffffffffff1603611a49576040517f08c379a0000000000000000000000000000000000000000000000000000000008152600401611a4090615290565b60405180910390fd5b80915050919050565b611a5a61264c565b5f73ffffffffffffffffffffffffffffffffffffffff168173ffffffffffffffffffffffffffffffffffffffff1603611ac8576040517f08c379a0000000000000000000000000000000000000000000000000000000008152600401611abf90614cd3565b60405180910390fd5b80600c5f6101000a81548173ffffffffffffffffffffffffffffffffffffffff021916908373ffffffffffffffffffffffffffffffffffffffff16021790555050565b6060805f5f67ffffffffffffffff811115611b2957611b28614050565b5b604051908082528060200260200182016040528015611b575781602001602082028036833780820191505090505b5090505f5f67ffffffffffffffff811115611b7557611b74614050565b5b604051908082528060200260200182016040528015611ba35781602001602082028036833780820191505090505b50905081819350935050509091565b5f5f73ffffffffffffffffffffffffffffffffffffffff168273ffffffffffffffffffffffffffffffffffffffff1603611c21576040517f08c379a0000000000000000000000000000000000000000000000000000000008152600401611c189061531e565b60405180910390fd5b60035f8373ffffffffffffffffffffffffffffffffffffffff1673ffffffffffffffffffffffffffffffffffffffff1681526020019081526020015f20549050919050565b611c6e61264c565b611c775f612fc7565b565b611c81612ba1565b5f3411611cc3576040517f08c379a0000000000000000000000000000000000000000000000000000000008152600401611cba90615386565b60405180910390fd5b6001151560105f3373ffffffffffffffffffffffffffffffffffffffff1673ffffffffffffffffffffffffffffffffffffffff1681526020019081526020015f206004015f9054906101000a900460ff1615151480611dab57505f73ffffffffffffffffffffffffffffffffffffffff1660105f3373ffffffffffffffffffffffffffffffffffffffff1673ffffffffffffffffffffffffffffffffffffffff1681526020019081526020015f205f015f9054906101000a900473ffffffffffffffffffffffffffffffffffffffff1673ffffffffffffffffffffffffffffffffffffffff16145b611dea576040517f08c379a0000000000000000000000000000000000000000000000000000000008152600401611de1906153ee565b60405180910390fd5b5f6064600d5434611dfb9190614fd5565b611e059190615043565b90505f8134611e149190615073565b90505f600c5f9054906101000a900473ffffffffffffffffffffffffffffffffffffffff1673ffffffffffffffffffffffffffffffffffffffff1683604051611e5c906150d3565b5f6040518083038185875af1925050503d805f8114611e96576040519150601f19603f3d011682016040523d82523d5f602084013e611e9b565b606091505b5050905080611edf576040517f08c379a0000000000000000000000000000000000000000000000000000000008152600401611ed690615456565b60405180910390fd5b81600e5f8781526020019081526020015f205f828254611eff919061486e565b925050819055506040518060a001604052803373ffffffffffffffffffffffffffffffffffffffff1681526020018381526020018581526020018681526020015f151581525060105f3373ffffffffffffffffffffffffffffffffffffffff1673ffffffffffffffffffffffffffffffffffffffff1681526020019081526020015f205f820151815f015f6101000a81548173ffffffffffffffffffffffffffffffffffffffff021916908373ffffffffffffffffffffffffffffffffffffffff1602179055506020820151816001015560408201518160020155606082015181600301556080820151816004015f6101000a81548160ff0219169083151502179055509050503373ffffffffffffffffffffffffffffffffffffffff167fb4caaf29adda3eefee3ad552a8e85058589bf834c7466cae4ee58787f70589ed86348760405161205093929190615474565b60405180910390a25050505050565b61206761264c565b61206f61308a565b565b600d5481565b5f60075f9054906101000a900473ffffffffffffffffffffffffffffffffffffffff16905090565b6060600180546120ae906148ce565b80601f01602080910402602001604051908101604052809291908181526020018280546120da906148ce565b80156121255780601f106120fc57610100808354040283529160200191612125565b820191905f5260205f20905b81548152906001019060200180831161210857829003601f168201915b5050505050905090565b612137613d83565b612140826130ec565b61217f576040517f08c379a0000000000000000000000000000000000000000000000000000000008152600401612176906154f3565b60405180910390fd5b60125f8381526020019081526020015f206040518060a00160405290815f82015481526020016001820154815260200160028201548152602001600382015481526020016004820180546121d2906148ce565b80601f01602080910402602001604051908101604052809291908181526020018280546121fe906148ce565b80156122495780601f1061222057610100808354040283529160200191612249565b820191905f5260205f20905b81548152906001019060200180831161222c57829003601f168201915b5050505050815250509050919050565b61226161264c565b8060145f8481526020019081526020015f20908161227f9190614bba565b505050565b61229661228f612715565b838361312c565b5050565b6122ab6122a5612715565b836127d2565b6122ea576040517f08c379a00000000000000000000000000000000000000000000000000000000081526004016122e190614d61565b60405180910390fd5b6122f684848484613293565b50505050565b6011602052805f5260405f205f915090505481565b61231961264c565b80600f5f8481526020019081526020015f20819055505050565b600c5f9054906101000a900473ffffffffffffffffffffffffffffffffffffffff1681565b6060612363826132ef565b9050919050565b61237261264c565b60058111156123b6576040517f08c379a00000000000000000000000000000000000000000000000000000000081526004016123ad9061555b565b60405180910390fd5b80600d8190555050565b6213c68081565b6012602052805f5260405f205f91509050805f0154908060010154908060020154908060030154908060040180546123fe906148ce565b80601f016020809104026020016040519081016040528092919081815260200182805461242a906148ce565b80156124755780601f1061244c57610100808354040283529160200191612475565b820191905f5260205f20905b81548152906001019060200180831161245857829003601f168201915b5050505050905085565b6010602052805f5260405f205f91509050805f015f9054906101000a900473ffffffffffffffffffffffffffffffffffffffff1690806001015490806002015490806003015490806004015f9054906101000a900460ff16905085565b5f60055f8473ffffffffffffffffffffffffffffffffffffffff1673ffffffffffffffffffffffffffffffffffffffff1681526020019081526020015f205f8373ffffffffffffffffffffffffffffffffffffffff1673ffffffffffffffffffffffffffffffffffffffff1681526020019081526020015f205f9054906101000a900460ff16905092915050565b61257261264c565b5f73ffffffffffffffffffffffffffffffffffffffff168173ffffffffffffffffffffffffffffffffffffffff16036125e0576040517f08c379a00000000000000000000000000000000000000000000000000000000081526004016125d7906155e9565b60405180910390fd5b6125e981612fc7565b50565b5f634906490660e01b7bffffffffffffffffffffffffffffffffffffffffffffffffffffffff1916827bffffffffffffffffffffffffffffffffffffffffffffffffffffffff191614806126455750612644826133f9565b5b9050919050565b612654612715565b73ffffffffffffffffffffffffffffffffffffffff16612672612077565b73ffffffffffffffffffffffffffffffffffffffff16146126c8576040517f08c379a00000000000000000000000000000000000000000000000000000000081526004016126bf90615651565b60405180910390fd5b565b6126d3816130ec565b612712576040517f08c379a000000000000000000000000000000000000000000000000000000000815260040161270990615290565b60405180910390fd5b50565b5f33905090565b8160045f8381526020019081526020015f205f6101000a81548173ffffffffffffffffffffffffffffffffffffffff021916908373ffffffffffffffffffffffffffffffffffffffff160217905550808273ffffffffffffffffffffffffffffffffffffffff1661278c836119ce565b73ffffffffffffffffffffffffffffffffffffffff167f8c5be1e5ebec7d5bd14f71427d1e84f3dd0314c0f7b2291e5b200ac8c7c3b92560405160405180910390a45050565b5f5f6127dd836119ce565b90508073ffffffffffffffffffffffffffffffffffffffff168473ffffffffffffffffffffffffffffffffffffffff16148061281f575061281e81856124dc565b5b8061285d57508373ffffffffffffffffffffffffffffffffffffffff1661284584610c68565b73ffffffffffffffffffffffffffffffffffffffff16145b91505092915050565b8273ffffffffffffffffffffffffffffffffffffffff16612886826119ce565b73ffffffffffffffffffffffffffffffffffffffff16146128dc576040517f08c379a00000000000000000000000000000000000000000000000000000000081526004016128d3906156df565b60405180910390fd5b5f73ffffffffffffffffffffffffffffffffffffffff168273ffffffffffffffffffffffffffffffffffffffff160361294a576040517f08c379a00000000000000000000000000000000000000000000000000000000081526004016129419061576d565b60405180910390fd5b61295783838360016134da565b8273ffffffffffffffffffffffffffffffffffffffff16612977826119ce565b73ffffffffffffffffffffffffffffffffffffffff16146129cd576040517f08c379a00000000000000000000000000000000000000000000000000000000081526004016129c4906156df565b60405180910390fd5b60045f8281526020019081526020015f205f6101000a81549073ffffffffffffffffffffffffffffffffffffffff0219169055600160035f8573ffffffffffffffffffffffffffffffffffffffff1673ffffffffffffffffffffffffffffffffffffffff1681526020019081526020015f205f8282540392505081905550600160035f8473ffffffffffffffffffffffffffffffffffffffff1673ffffffffffffffffffffffffffffffffffffffff1681526020019081526020015f205f82825401925050819055508160025f8381526020019081526020015f205f6101000a81548173ffffffffffffffffffffffffffffffffffffffff021916908373ffffffffffffffffffffffffffffffffffffffff160217905550808273ffffffffffffffffffffffffffffffffffffffff168473ffffffffffffffffffffffffffffffffffffffff167fddf252ad1be2c89b69c2b068fc378daa952ba7f163c4a11628f55a4df523b3ef60405160405180910390a4612b4d83838360016134e0565b505050565b600260085403612b97576040517f08c379a0000000000000000000000000000000000000000000000000000000008152600401612b8e906157d5565b60405180910390fd5b6002600881905550565b612ba96119b9565b15612be9576040517f08c379a0000000000000000000000000000000000000000000000000000000008152600401612be09061583d565b60405180910390fd5b565b5f5f5f5f612bf8856134e6565b9250925092505f86604051602001612c1091906158d8565b6040516020818303038152906040528051906020012090506001818585856040515f8152602001604052604051612c4a9493929190615927565b6020604051602081039080840390855afa158015612c6a573d5f5f3e3d5ffd5b5050506020604051035194505050505092915050565b5f612c8b600a61354b565b9050612c97600a613557565b612ca1858261356b565b6040518060a0016040528085815260200142815260200184815260200183815260200160145f8781526020019081526020015f208054612ce0906148ce565b80601f0160208091040260200160405190810160405280929190818152602001828054612d0c906148ce565b8015612d575780601f10612d2e57610100808354040283529160200191612d57565b820191905f5260205f20905b815481529060010190602001808311612d3a57829003601f168201915b505050505081525060125f8381526020019081526020015f205f820151815f01556020820151816001015560408201518160020155606082015181600301556080820151816004019081612dab9190614bba565b5090505060135f8673ffffffffffffffffffffffffffffffffffffffff1673ffffffffffffffffffffffffffffffffffffffff1681526020019081526020015f2081908060018154018082558091505060019003905f5260205f20015f90919091909150555f60155f8681526020019081526020015f208054612e2d906148ce565b90501115612ed757612ed68160155f8781526020019081526020015f208054612e55906148ce565b80601f0160208091040260200160405190810160405280929190818152602001828054612e81906148ce565b8015612ecc5780601f10612ea357610100808354040283529160200191612ecc565b820191905f5260205f20905b815481529060010190602001808311612eaf57829003601f168201915b5050505050613588565b5b83818673ffffffffffffffffffffffffffffffffffffffff167f9b390198d06ba6c0d663c43b3008ef3478cd147df8f0e340591169b8835e8d2060405160405180910390a45050505050565b6001600881905550565b612f3561362a565b5f60095f6101000a81548160ff0219169083151502179055507f5db9ee0a495bf2e6ff9c91a7834c1ba4fdd244a5e8aa4e537bd38aeae4b073aa612f77612715565b604051612f849190613fc7565b60405180910390a1565b5f60025f8381526020019081526020015f205f9054906101000a900473ffffffffffffffffffffffffffffffffffffffff169050919050565b5f60075f9054906101000a900473ffffffffffffffffffffffffffffffffffffffff1690508160075f6101000a81548173ffffffffffffffffffffffffffffffffffffffff021916908373ffffffffffffffffffffffffffffffffffffffff1602179055508173ffffffffffffffffffffffffffffffffffffffff168173ffffffffffffffffffffffffffffffffffffffff167f8be0079c531659141344cd1fd0a4f28419497f9722a3daafe3b4186f6b6457e060405160405180910390a35050565b613092612ba1565b600160095f6101000a81548160ff0219169083151502179055507f62e78cea01bee320cd4e420270b5ea74000d11b0c9f74754ebdbfc544b05a2586130d5612715565b6040516130e29190613fc7565b60405180910390a1565b5f5f73ffffffffffffffffffffffffffffffffffffffff1661310d83612f8e565b73ffffffffffffffffffffffffffffffffffffffff1614159050919050565b8173ffffffffffffffffffffffffffffffffffffffff168373ffffffffffffffffffffffffffffffffffffffff160361319a576040517f08c379a0000000000000000000000000000000000000000000000000000000008152600401613191906159b4565b60405180910390fd5b8060055f8573ffffffffffffffffffffffffffffffffffffffff1673ffffffffffffffffffffffffffffffffffffffff1681526020019081526020015f205f8473ffffffffffffffffffffffffffffffffffffffff1673ffffffffffffffffffffffffffffffffffffffff1681526020019081526020015f205f6101000a81548160ff0219169083151502179055508173ffffffffffffffffffffffffffffffffffffffff168373ffffffffffffffffffffffffffffffffffffffff167f17307eab39ab6107e8899845ad3d59bd9653f200f220920489ca2b5937696c31836040516132869190613e59565b60405180910390a3505050565b61329e848484612866565b6132aa84848484613673565b6132e9576040517f08c379a00000000000000000000000000000000000000000000000000000000081526004016132e090615a42565b60405180910390fd5b50505050565b60606132fa826126ca565b5f60065f8481526020019081526020015f208054613317906148ce565b80601f0160208091040260200160405190810160405280929190818152602001828054613343906148ce565b801561338e5780601f106133655761010080835404028352916020019161338e565b820191905f5260205f20905b81548152906001019060200180831161337157829003601f168201915b505050505090505f61339e6137f5565b90505f8151036133b25781925050506133f4565b5f825111156133e65780826040516020016133ce929190615a90565b604051602081830303815290604052925050506133f4565b6133ef8461380b565b925050505b919050565b5f7f80ac58cd000000000000000000000000000000000000000000000000000000007bffffffffffffffffffffffffffffffffffffffffffffffffffffffff1916827bffffffffffffffffffffffffffffffffffffffffffffffffffffffff191614806134c357507f5b5e139f000000000000000000000000000000000000000000000000000000007bffffffffffffffffffffffffffffffffffffffffffffffffffffffff1916827bffffffffffffffffffffffffffffffffffffffffffffffffffffffff1916145b806134d357506134d282613870565b5b9050919050565b50505050565b50505050565b5f5f5f604184511461352d576040517f08c379a000000000000000000000000000000000000000000000000000000000815260040161352490615afd565b60405180910390fd5b602084015191506040840151905060608401515f1a92509193909250565b5f815f01549050919050565b6001815f015f828254019250508190555050565b613584828260405180602001604052805f8152506138d9565b5050565b613591826130ec565b6135d0576040517f08c379a00000000000000000000000000000000000000000000000000000000081526004016135c790615b8b565b60405180910390fd5b8060065f8481526020019081526020015f2090816135ee9190614bba565b507ff8e1a15aba9398e019f0b49df1a4fde98ee17ae345cb5f6b5e2c27f5033e8ce78260405161361e9190613f6f565b60405180910390a15050565b6136326119b9565b613671576040517f08c379a000000000000000000000000000000000000000000000000000000000815260040161366890615bf3565b60405180910390fd5b565b5f6136938473ffffffffffffffffffffffffffffffffffffffff16613933565b156137e8578373ffffffffffffffffffffffffffffffffffffffff1663150b7a026136bc612715565b8786866040518563ffffffff1660e01b81526004016136de9493929190615c63565b6020604051808303815f875af192505050801561371957506040513d601f19601f820116820180604052508101906137169190615cc1565b60015b613798573d805f8114613747576040519150601f19603f3d011682016040523d82523d5f602084013e61374c565b606091505b505f815103613790576040517f08c379a000000000000000000000000000000000000000000000000000000000815260040161378790615a42565b60405180910390fd5b805181602001fd5b63150b7a0260e01b7bffffffffffffffffffffffffffffffffffffffffffffffffffffffff1916817bffffffffffffffffffffffffffffffffffffffffffffffffffffffff1916149150506137ed565b600190505b949350505050565b606060405180602001604052805f815250905090565b6060613816826126ca565b5f61381f6137f5565b90505f81511161383d5760405180602001604052805f815250613868565b8061384784613955565b604051602001613858929190615a90565b6040516020818303038152906040525b915050919050565b5f7f01ffc9a7000000000000000000000000000000000000000000000000000000007bffffffffffffffffffffffffffffffffffffffffffffffffffffffff1916827bffffffffffffffffffffffffffffffffffffffffffffffffffffffff1916149050919050565b6138e38383613a1f565b6138ef5f848484613673565b61392e576040517f08c379a000000000000000000000000000000000000000000000000000000000815260040161392590615a42565b60405180910390fd5b505050565b5f5f8273ffffffffffffffffffffffffffffffffffffffff163b119050919050565b60605f600161396384613c32565b0190505f8167ffffffffffffffff81111561398157613980614050565b5b6040519080825280601f01601f1916602001820160405280156139b35781602001600182028036833780820191505090505b5090505f82602001820190505b600115613a14578080600190039150507f3031323334353637383961626364656600000000000000000000000000000000600a86061a8153600a8581613a0957613a08615016565b5b0494505f85036139c0575b819350505050919050565b5f73ffffffffffffffffffffffffffffffffffffffff168273ffffffffffffffffffffffffffffffffffffffff1603613a8d576040517f08c379a0000000000000000000000000000000000000000000000000000000008152600401613a8490615d36565b60405180910390fd5b613a96816130ec565b15613ad6576040517f08c379a0000000000000000000000000000000000000000000000000000000008152600401613acd90615d9e565b60405180910390fd5b613ae35f838360016134da565b613aec816130ec565b15613b2c576040517f08c379a0000000000000000000000000000000000000000000000000000000008152600401613b2390615d9e565b60405180910390fd5b600160035f8473ffffffffffffffffffffffffffffffffffffffff1673ffffffffffffffffffffffffffffffffffffffff1681526020019081526020015f205f82825401925050819055508160025f8381526020019081526020015f205f6101000a81548173ffffffffffffffffffffffffffffffffffffffff021916908373ffffffffffffffffffffffffffffffffffffffff160217905550808273ffffffffffffffffffffffffffffffffffffffff165f73ffffffffffffffffffffffffffffffffffffffff167fddf252ad1be2c89b69c2b068fc378daa952ba7f163c4a11628f55a4df523b3ef60405160405180910390a4613c2e5f838360016134e0565b5050565b5f5f5f90507a184f03e93ff9f4daa797ed6e38ed64bf6a1f0100000000000000008310613c8e577a184f03e93ff9f4daa797ed6e38ed64bf6a1f0100000000000000008381613c8457613c83615016565b5b0492506040810190505b6d04ee2d6d415b85acef81000000008310613ccb576d04ee2d6d415b85acef81000000008381613cc157613cc0615016565b5b0492506020810190505b662386f26fc100008310613cfa57662386f26fc100008381613cf057613cef615016565b5b0492506010810190505b6305f5e1008310613d23576305f5e1008381613d1957613d18615016565b5b0492506008810190505b6127108310613d48576127108381613d3e57613d3d615016565b5b0492506004810190505b60648310613d6b5760648381613d6157613d60615016565b5b0492506002810190505b600a8310613d7a576001810190505b80915050919050565b6040518060a001604052805f81526020015f81526020015f81526020015f8152602001606081525090565b5f604051905090565b5f5ffd5b5f5ffd5b5f7fffffffff0000000000000000000000000000000000000000000000000000000082169050919050565b613df381613dbf565b8114613dfd575f5ffd5b50565b5f81359050613e0e81613dea565b92915050565b5f60208284031215613e2957613e28613db7565b5b5f613e3684828501613e00565b91505092915050565b5f8115159050919050565b613e5381613e3f565b82525050565b5f602082019050613e6c5f830184613e4a565b92915050565b5f819050919050565b613e8481613e72565b8114613e8e575f5ffd5b50565b5f81359050613e9f81613e7b565b92915050565b5f60208284031215613eba57613eb9613db7565b5b5f613ec784828501613e91565b91505092915050565b5f81519050919050565b5f82825260208201905092915050565b8281835e5f83830152505050565b5f601f19601f8301169050919050565b5f613f1282613ed0565b613f1c8185613eda565b9350613f2c818560208601613eea565b613f3581613ef8565b840191505092915050565b5f6020820190508181035f830152613f588184613f08565b905092915050565b613f6981613e72565b82525050565b5f602082019050613f825f830184613f60565b92915050565b5f73ffffffffffffffffffffffffffffffffffffffff82169050919050565b5f613fb182613f88565b9050919050565b613fc181613fa7565b82525050565b5f602082019050613fda5f830184613fb8565b92915050565b613fe981613fa7565b8114613ff3575f5ffd5b50565b5f8135905061400481613fe0565b92915050565b5f5f604083850312156140205761401f613db7565b5b5f61402d85828601613ff6565b925050602061403e85828601613e91565b9150509250929050565b5f5ffd5b5f5ffd5b7f4e487b71000000000000000000000000000000000000000000000000000000005f52604160045260245ffd5b61408682613ef8565b810181811067ffffffffffffffff821117156140a5576140a4614050565b5b80604052505050565b5f6140b7613dae565b90506140c3828261407d565b919050565b5f67ffffffffffffffff8211156140e2576140e1614050565b5b6140eb82613ef8565b9050602081019050919050565b828183375f83830152505050565b5f614118614113846140c8565b6140ae565b9050828152602081018484840111156141345761413361404c565b5b61413f8482856140f8565b509392505050565b5f82601f83011261415b5761415a614048565b5b813561416b848260208601614106565b91505092915050565b5f5f6040838503121561418a57614189613db7565b5b5f61419785828601613e91565b925050602083013567ffffffffffffffff8111156141b8576141b7613dbb565b5b6141c485828601614147565b9150509250929050565b5f602082840312156141e3576141e2613db7565b5b5f6141f084828501613ff6565b91505092915050565b5f5f5f606084860312156142105761420f613db7565b5b5f61421d86828701613ff6565b935050602061422e86828701613ff6565b925050604061423f86828701613e91565b9150509250925092565b5f81519050919050565b5f82825260208201905092915050565b5f819050602082019050919050565b61427b81613e72565b82525050565b5f61428c8383614272565b60208301905092915050565b5f602082019050919050565b5f6142ae82614249565b6142b88185614253565b93506142c383614263565b805f5b838110156142f35781516142da8882614281565b97506142e583614298565b9250506001810190506142c6565b5085935050505092915050565b5f6020820190508181035f83015261431881846142a4565b905092915050565b5f67ffffffffffffffff82111561433a57614339614050565b5b61434382613ef8565b9050602081019050919050565b5f61436261435d84614320565b6140ae565b90508281526020810184848401111561437e5761437d61404c565b5b6143898482856140f8565b509392505050565b5f82601f8301126143a5576143a4614048565b5b81356143b5848260208601614350565b91505092915050565b5f602082840312156143d3576143d2613db7565b5b5f82013567ffffffffffffffff8111156143f0576143ef613dbb565b5b6143fc84828501614391565b91505092915050565b5f81519050919050565b5f82825260208201905092915050565b5f819050602082019050919050565b61443781613fa7565b82525050565b5f614448838361442e565b60208301905092915050565b5f602082019050919050565b5f61446a82614405565b614474818561440f565b935061447f8361441f565b805f5b838110156144af578151614496888261443d565b97506144a183614454565b925050600181019050614482565b5085935050505092915050565b5f6040820190508181035f8301526144d48185614460565b905081810360208301526144e881846142a4565b90509392505050565b5f5f6040838503121561450757614506613db7565b5b5f61451485828601613e91565b925050602061452585828601613e91565b9150509250929050565b5f82825260208201905092915050565b5f61454982613ed0565b614553818561452f565b9350614563818560208601613eea565b61456c81613ef8565b840191505092915050565b5f60a083015f83015161458c5f860182614272565b50602083015161459f6020860182614272565b5060408301516145b26040860182614272565b5060608301516145c56060860182614272565b50608083015184820360808601526145dd828261453f565b9150508091505092915050565b5f6020820190508181035f8301526146028184614577565b905092915050565b61461381613e3f565b811461461d575f5ffd5b50565b5f8135905061462e8161460a565b92915050565b5f5f6040838503121561464a57614649613db7565b5b5f61465785828601613ff6565b925050602061466885828601614620565b9150509250929050565b5f5f5f5f6080858703121561468a57614689613db7565b5b5f61469787828801613ff6565b94505060206146a887828801613ff6565b93505060406146b987828801613e91565b925050606085013567ffffffffffffffff8111156146da576146d9613dbb565b5b6146e687828801614391565b91505092959194509250565b5f60a0820190506147055f830188613f60565b6147126020830187613f60565b61471f6040830186613f60565b61472c6060830185613f60565b818103608083015261473e8184613f08565b90509695505050505050565b5f60a08201905061475d5f830188613fb8565b61476a6020830187613f60565b6147776040830186613f60565b6147846060830185613f60565b6147916080830184613e4a565b9695505050505050565b5f5f604083850312156147b1576147b0613db7565b5b5f6147be85828601613ff6565b92505060206147cf85828601613ff6565b9150509250929050565b7f53656564206d757374206265203e3000000000000000000000000000000000005f82015250565b5f61480d600f83613eda565b9150614818826147d9565b602082019050919050565b5f6020820190508181035f83015261483a81614801565b9050919050565b7f4e487b71000000000000000000000000000000000000000000000000000000005f52601160045260245ffd5b5f61487882613e72565b915061488383613e72565b925082820190508082111561489b5761489a614841565b5b92915050565b7f4e487b71000000000000000000000000000000000000000000000000000000005f52602260045260245ffd5b5f60028204905060018216806148e557607f821691505b6020821081036148f8576148f76148a1565b5b50919050565b7f4552433732313a20617070726f76616c20746f2063757272656e74206f776e655f8201527f7200000000000000000000000000000000000000000000000000000000000000602082015250565b5f614958602183613eda565b9150614963826148fe565b604082019050919050565b5f6020820190508181035f8301526149858161494c565b9050919050565b7f4552433732313a20617070726f76652063616c6c6572206973206e6f7420746f5f8201527f6b656e206f776e6572206f7220617070726f76656420666f7220616c6c000000602082015250565b5f6149e6603d83613eda565b91506149f18261498c565b604082019050919050565b5f6020820190508181035f830152614a13816149da565b9050919050565b5f819050815f5260205f209050919050565b5f6020601f8301049050919050565b5f82821b905092915050565b5f60088302614a767fffffffffffffffffffffffffffffffffffffffffffffffffffffffffffffffff82614a3b565b614a808683614a3b565b95508019841693508086168417925050509392505050565b5f819050919050565b5f614abb614ab6614ab184613e72565b614a98565b613e72565b9050919050565b5f819050919050565b614ad483614aa1565b614ae8614ae082614ac2565b848454614a47565b825550505050565b5f5f905090565b614aff614af0565b614b0a818484614acb565b505050565b5b81811015614b2d57614b225f82614af7565b600181019050614b10565b5050565b601f821115614b7257614b4381614a1a565b614b4c84614a2c565b81016020851015614b5b578190505b614b6f614b6785614a2c565b830182614b0f565b50505b505050565b5f82821c905092915050565b5f614b925f1984600802614b77565b1980831691505092915050565b5f614baa8383614b83565b9150826002028217905092915050565b614bc382613ed0565b67ffffffffffffffff811115614bdc57614bdb614050565b5b614be682546148ce565b614bf1828285614b31565b5f60209050601f831160018114614c22575f8415614c10578287015190505b614c1a8582614b9f565b865550614c81565b601f198416614c3086614a1a565b5f5b82811015614c5757848901518255600182019150602085019450602081019050614c32565b86831015614c745784890151614c70601f891682614b83565b8355505b6001600288020188555050505b505050505050565b7f43616e6e6f74206265207a65726f2061646472657373000000000000000000005f82015250565b5f614cbd601683613eda565b9150614cc882614c89565b602082019050919050565b5f6020820190508181035f830152614cea81614cb1565b9050919050565b7f4552433732313a2063616c6c6572206973206e6f7420746f6b656e206f776e655f8201527f72206f7220617070726f76656400000000000000000000000000000000000000602082015250565b5f614d4b602d83613eda565b9150614d5682614cf1565b604082019050919050565b5f6020820190508181035f830152614d7881614d3f565b9050919050565b7f4e6f2061637469766520636f6d6d69746d656e740000000000000000000000005f82015250565b5f614db3601483613eda565b9150614dbe82614d7f565b602082019050919050565b5f6020820190508181035f830152614de081614da7565b9050919050565b7f436f6d6d69746d656e7420616c72656164792070726f636573736564000000005f82015250565b5f614e1b601c83613eda565b9150614e2682614de7565b602082019050919050565b5f6020820190508181035f830152614e4881614e0f565b9050919050565b7f54726176656c2064617465206e6f7420726561636865642079657400000000005f82015250565b5f614e83601b83613eda565b9150614e8e82614e4f565b602082019050919050565b5f6020820190508181035f830152614eb081614e77565b9050919050565b5f8160601b9050919050565b5f614ecd82614eb7565b9050919050565b5f614ede82614ec3565b9050919050565b614ef6614ef182613fa7565b614ed4565b82525050565b5f819050919050565b614f16614f1182613e72565b614efc565b82525050565b5f614f278285614ee5565b601482019150614f378284614f05565b6020820191508190509392505050565b7f496e76616c6964207369676e61747572653a206e6f742066726f6d20766572695f8201527f6669657200000000000000000000000000000000000000000000000000000000602082015250565b5f614fa1602483613eda565b9150614fac82614f47565b604082019050919050565b5f6020820190508181035f830152614fce81614f95565b9050919050565b5f614fdf82613e72565b9150614fea83613e72565b9250828202614ff881613e72565b9150828204841483151761500f5761500e614841565b5b5092915050565b7f4e487b71000000000000000000000000000000000000000000000000000000005f52601260045260245ffd5b5f61504d82613e72565b915061505883613e72565b92508261506857615067615016565b5b828204905092915050565b5f61507d82613e72565b915061508883613e72565b92508282039050818111156150a05761509f614841565b5b92915050565b5f81905092915050565b50565b5f6150be5f836150a6565b91506150c9826150b0565b5f82019050919050565b5f6150dd826150b3565b9150819050919050565b7f5061796f7574206661696c6564000000000000000000000000000000000000005f82015250565b5f61511b600d83613eda565b9150615126826150e7565b602082019050919050565b5f6020820190508181035f8301526151488161510f565b9050919050565b5f6040820190506151625f830185613f60565b61516f6020830184613f60565b9392505050565b7f54726176656c20646561646c696e65206e6f74207061737365642079657400005f82015250565b5f6151aa601e83613eda565b91506151b582615176565b602082019050919050565b5f6020820190508181035f8301526151d78161519e565b9050919050565b7f5769746864726177616c206661696c65640000000000000000000000000000005f82015250565b5f615212601183613eda565b915061521d826151de565b602082019050919050565b5f6020820190508181035f83015261523f81615206565b9050919050565b7f4552433732313a20696e76616c696420746f6b656e20494400000000000000005f82015250565b5f61527a601883613eda565b915061528582615246565b602082019050919050565b5f6020820190508181035f8301526152a78161526e565b9050919050565b7f4552433732313a2061646472657373207a65726f206973206e6f7420612076615f8201527f6c6964206f776e65720000000000000000000000000000000000000000000000602082015250565b5f615308602983613eda565b9150615313826152ae565b604082019050919050565b5f6020820190508181035f830152615335816152fc565b9050919050565b7f5374616b65206d757374206265203e20300000000000000000000000000000005f82015250565b5f615370601183613eda565b915061537b8261533c565b602082019050919050565b5f6020820190508181035f83015261539d81615364565b9050919050565b7f41637469766520636f6d6d69746d656e742065786973747300000000000000005f82015250565b5f6153d8601883613eda565b91506153e3826153a4565b602082019050919050565b5f6020820190508181035f830152615405816153cc565b9050919050565b7f466565207472616e73666572206661696c6564000000000000000000000000005f82015250565b5f615440601383613eda565b915061544b8261540c565b602082019050919050565b5f6020820190508181035f83015261546d81615434565b9050919050565b5f6060820190506154875f830186613f60565b6154946020830185613f60565b6154a16040830184613f60565b949350505050565b7f4e465420646f6573206e6f7420657869737400000000000000000000000000005f82015250565b5f6154dd601283613eda565b91506154e8826154a9565b602082019050919050565b5f6020820190508181035f83015261550a816154d1565b9050919050565b7f4665652063616e6e6f74206578636565642035250000000000000000000000005f82015250565b5f615545601483613eda565b915061555082615511565b602082019050919050565b5f6020820190508181035f83015261557281615539565b9050919050565b7f4f776e61626c653a206e6577206f776e657220697320746865207a65726f20615f8201527f6464726573730000000000000000000000000000000000000000000000000000602082015250565b5f6155d3602683613eda565b91506155de82615579565b604082019050919050565b5f6020820190508181035f830152615600816155c7565b9050919050565b7f4f776e61626c653a2063616c6c6572206973206e6f7420746865206f776e65725f82015250565b5f61563b602083613eda565b915061564682615607565b602082019050919050565b5f6020820190508181035f8301526156688161562f565b9050919050565b7f4552433732313a207472616e736665722066726f6d20696e636f7272656374205f8201527f6f776e6572000000000000000000000000000000000000000000000000000000602082015250565b5f6156c9602583613eda565b91506156d48261566f565b604082019050919050565b5f6020820190508181035f8301526156f6816156bd565b9050919050565b7f4552433732313a207472616e7366657220746f20746865207a65726f206164645f8201527f7265737300000000000000000000000000000000000000000000000000000000602082015250565b5f615757602483613eda565b9150615762826156fd565b604082019050919050565b5f6020820190508181035f8301526157848161574b565b9050919050565b7f5265656e7472616e637947756172643a207265656e7472616e742063616c6c005f82015250565b5f6157bf601f83613eda565b91506157ca8261578b565b602082019050919050565b5f6020820190508181035f8301526157ec816157b3565b9050919050565b7f5061757361626c653a20706175736564000000000000000000000000000000005f82015250565b5f615827601083613eda565b9150615832826157f3565b602082019050919050565b5f6020820190508181035f8301526158548161581b565b9050919050565b5f81905092915050565b7f19457468657265756d205369676e6564204d6573736167653a0a3332000000005f82015250565b5f615899601c8361585b565b91506158a482615865565b601c82019050919050565b5f819050919050565b5f819050919050565b6158d26158cd826158af565b6158b8565b82525050565b5f6158e28261588d565b91506158ee82846158c1565b60208201915081905092915050565b615906816158af565b82525050565b5f60ff82169050919050565b6159218161590c565b82525050565b5f60808201905061593a5f8301876158fd565b6159476020830186615918565b61595460408301856158fd565b61596160608301846158fd565b95945050505050565b7f4552433732313a20617070726f766520746f2063616c6c6572000000000000005f82015250565b5f61599e601983613eda565b91506159a98261596a565b602082019050919050565b5f6020820190508181035f8301526159cb81615992565b9050919050565b7f4552433732313a207472616e7366657220746f206e6f6e2045524337323152655f8201527f63656976657220696d706c656d656e7465720000000000000000000000000000602082015250565b5f615a2c603283613eda565b9150615a37826159d2565b604082019050919050565b5f6020820190508181035f830152615a5981615a20565b9050919050565b5f615a6a82613ed0565b615a74818561585b565b9350615a84818560208601613eea565b80840191505092915050565b5f615a9b8285615a60565b9150615aa78284615a60565b91508190509392505050565b7f496e76616c6964207369676e6174757265206c656e67746800000000000000005f82015250565b5f615ae7601883613eda565b9150615af282615ab3565b602082019050919050565b5f6020820190508181035f830152615b1481615adb565b9050919050565b7f45524337323155524953746f726167653a2055524920736574206f66206e6f6e5f8201527f6578697374656e7420746f6b656e000000000000000000000000000000000000602082015250565b5f615b75602e83613eda565b9150615b8082615b1b565b604082019050919050565b5f6020820190508181035f830152615ba281615b69565b9050919050565b7f5061757361626c653a206e6f74207061757365640000000000000000000000005f82015250565b5f615bdd601483613eda565b9150615be882615ba9565b602082019050919050565b5f6020820190508181035f830152615c0a81615bd1565b9050919050565b5f81519050919050565b5f82825260208201905092915050565b5f615c3582615c11565b615c3f8185615c1b565b9350615c4f818560208601613eea565b615c5881613ef8565b840191505092915050565b5f608082019050615c765f830187613fb8565b615c836020830186613fb8565b615c906040830185613f60565b8181036060830152615ca28184615c2b565b905095945050505050565b5f81519050615cbb81613dea565b92915050565b5f60208284031215615cd657615cd5613db7565b5b5f615ce384828501615cad565b91505092915050565b7f4552433732313a206d696e7420746f20746865207a65726f20616464726573735f82015250565b5f615d20602083613eda565b9150615d2b82615cec565b602082019050919050565b5f6020820190508181035f830152615d4d81615d14565b9050919050565b7f4552433732313a20746f6b656e20616c7265616479206d696e746564000000005f82015250565b5f615d88601c83613eda565b9150615d9382615d54565b602082019050919050565b5f6020820190508181035f830152615db581615d7c565b905091905056fea2646970667358221220d2a0d75403f561ed54300481abb2a553dfeba587da1c6b7f7ada440828b7295a64736f6c634300081e0033",
    "linkReferences": {}
  },
  "methodIdentifiers": {
    "BASE_REWARD()": "22009af6",
    "BETA()": "071a7541",
    "MIN_STAKE_DURATION()": "e0c570ba",
    "approve(address,uint256)": "095ea7b3",
    "balanceOf(address)": "70a08231",
    "checkIn(bytes)": "304c44d1",
    "commitments(address)": "e8fcf723",
    "destinationMetadata(uint256)": "31d56d3c",
    "destinationNames(uint256)": "4efa8eeb",
    "getApproved(uint256)": "081812fc",
    "getJourneyNFTDetails(uint256)": "9f2a4bbd",
    "getLeaderboard()": "6d763a6e",
    "getUserJourneyCount(address)": "5c3e4f62",
    "getUserJourneyNFTs(address)": "2d8fb7ab",
    "isApprovedForAll(address,address)": "e985e9c5",
    "journeyNFTs(uint256)": "e237fc5e",
    "locationPools(uint256)": "35ac81cf",
    "name()": "06fdde03",
    "owner()": "8da5cb5b",
    "ownerOf(uint256)": "6352211e",
    "pause()": "8456cb59",
    "paused()": "5c975abb",
    "placeValues(uint256)": "0e6bc64f",
    "platformFeePercent()": "8c639a85",
    "processFailure()": "34363420",
    "renounceOwnership()": "715018a6",
    "safeTransferFrom(address,address,uint256)": "42842e0e",
    "safeTransferFrom(address,address,uint256,bytes)": "b88d4fde",
    "seedPool(uint256)": "025d26bd",
    "setApprovalForAll(address,bool)": "a22cb465",
    "setDestinationMetadata(uint256,string)": "17cd8745",
    "setDestinationName(uint256,string)": "a0d9eeab",
    "setPlaceValue(uint256,uint256)": "c0c1fee5",
    "setPlatformFeePercent(uint256)": "cab230d2",
    "setTreasuryAddress(address)": "6605bfda",
    "setVerifierAddress(address)": "17e95526",
    "stake(uint256,uint256)": "7b0472f0",
    "supportsInterface(bytes4)": "01ffc9a7",
    "symbol()": "95d89b41",
    "tokenURI(uint256)": "c87b56dd",
    "transferFrom(address,address,uint256)": "23b872dd",
    "transferOwnership(address)": "f2fde38b",
    "treasuryAddress()": "c5f956af",
    "unpause()": "3f4ba83a",
    "userJourneyNFTs(address,uint256)": "0e526b14",
    "userProfits(address)": "be354836",
    "verifierAddress()": "18bdffbb",
    "withdrawFees()": "476343ee"
  },
  "id": 42
}